:020000040800F2
:1000000078070020890100084B100008690E0008DD
:100010004910000813030008A710000800000000A2
:100020000000000000000000000000004F10000869
:100030006D060008000000004D1000085110000877
:10004000A3010008A3010008A3010008A301000800
:10005000A3010008A3010008A3010008A3010008F0
:10006000A3010008A3010008A3010008A3010008E0
:10007000A3010008A3010008A3010008A3010008D0
:10008000A3010008A3010008A3010008A3010008C0
:10009000A3010008A3010008A3010008A3010008B0
:1000A000A3010008A3010008A3010008A3010008A0
:1000B000A3010008A301000800000000A30100083C
:1000C000A30100080000000000000000A3010008D8
:1000D00000000000A3010008A301000800000000C8
:1000E000A3010008A3010008A301000800F002F822
:1000F00000F03AF80AA090E8000C82448344AAF188
:100100000107DA4501D100F02FF8AFF2090EBAE885
:100110000F0013F0010F18BFFB1A43F0010318473B
:100120002423000044230000103A24BF78C878C17B
:10013000FAD8520724BF30C830C144BF04680C60ED
:10014000704700000023002400250026103A28BF35
:1001500078C1FBD8520728BF30C148BF0B60704739
:100160001FB51FBD10B510BD00F099F81146FFF77F
:10017000F7FF00F0A9FF00F0B7F803B4FFF7F2FFB4
:1001800003BC00F0BFF80000094880470948004759
:10019000FEE7FEE7FEE7FEE7FEE7FEE7FEE7FEE737
:1001A000FEE7FEE704480549054A064B7047000094
:1001B000A5100008ED000008780100207807002055
:1001C00078030020780300204FF0000200B51346AA
:1001D00094469646203922BFA0E80C50A0E80C5067
:1001E000B1F12001BFF4F7AF090728BFA0E80C5018
:1001F00048BF0CC05DF804EB890028BF40F8042B11
:1002000008BF704748BF20F8022B11F0804F18BF7D
:1002100000F8012B704700004FF0013C50F8042B10
:1002200051F8043B9A4221D1A2EB0C03934313EA09
:10023000CC1317D150F8042B51F8043B9A4215D136
:10024000A2EB0C03934313EACC130BD150F8042B0D
:1002500051F8043B9A4209D1A2EB0C03934313EAF1
:10026000CC13DBD04FF00000704700BFD01A01BAAA
:10027000B1FA81F101F0180122FA01F0CB40C1F18D
:100280002001DBB2C0B2C01A2CFA01F3D11A91439B
:1002900011EAC311E6D17047704770477047754641
:1002A00000F02CF8AE4605006946534620F00700E2
:1002B000854618B020B5FFF775FFBDE820404FF028
:1002C00000064FF000074FF000084FF0000B21F040
:1002D0000701AC46ACE8C009ACE8C009ACE8C0090D
:1002E000ACE8C0098D46704710B50446AFF30080F6
:1002F0002046BDE81040FFF740BF000000487047AF
:100300001401002001491820ABBEFEE726000200C0
:100310007047FEE72DE9F05F0446DDE91890DDE95E
:100320001465DDE912C7DDE90ABE4FF01008DDF8FB
:100330006CA084F800806170A2706360A4F808B0BB
:10034000C4F80CE00C9921820D9961610E9921830A
:100350000F99E1611099218411996162A4F828C074
:10036000E76226866563169921871799E163A4F8E9
:10037000409060641A98A4F84800C4F84CA01C98F7
:10038000A4F85000322000F073F9382084F85500AA
:10039000062184F852100C2084F85300142084F8AD
:1003A00054000022204600F0EEF894F8531000228A
:1003B000204600F0E8F894F854100022204600F09F
:1003C000E2F894F855100022204600F0DCF80022F4
:1003D0000121204600F0D7F82046BDE8F05F00225A
:1003E000022100F0D0B810B50178102901D029B150
:1003F00008E00022012100F0C6F803E000220121FC
:1004000000F04CF8BDE81040052000F031B990F83C
:10041000531021F0020180F853100278102A03D003
:10042000002A04D100F03AB8002200F0ACB87047BE
:1004300090F8531041F0020180F853100278102A0E
:1004400003D0002A04D100F029B8002200F09BB8A4
:100450007047000008B510A31B68009343788B42D7
:1004600001D85B1ED9B28378934201D85B1EDAB201
:100470001DF8022011440278C9B2102A06D0002AC1
:1004800003D141F0800100F009F808BD41F080017E
:10049000002200F078F808BD0040145470B50446FE
:1004A0000E090D4612B1012A04D008E0218900226C
:1004B000606802E021890122606800F0D0F9218F94
:1004C000606B06F001020C3400F0C9F9A18EC6F38E
:1004D0004002206B00F0C3F9A18FC6F38002A06B2D
:1004E00000F0BDF9B4F84410F208206C00F0B7F940
:1004F000A1880022206800F0B2F9012000F0B8F8CD
:10050000A1880122206800F0AAF9012000F0B0F8CB
:10051000A1880022206800F0A2F9012000F0A8F8CC
:1005200005F00102A18DA06A00F099F9A18EC5F332
:100530004002206B00F093F9A18FC5F38002A06BFD
:1005400000F08DF9B4F84410C5F3C002206C00F03F
:1005500086F9A1880022206800F081F9012000F0CE
:1005600087F8A1880122206800F079F9012000F0C5
:100570007FF8A1880022206800F071F9BDE8704082
:10058000012000F075B870B50D46044612B1012A7D
:1005900004D008E021890022606802E0218901225C
:1005A000606800F05CF9218B606905F001020C3491
:1005B00000F055F9A18AC5F34002206900F04FF917
:1005C000A18BC5F38002A06900F049F9A18CC5F3A5
:1005D000C002206A00F043F9A18DC5F30012A06AA1
:1005E00000F03DF9A18EC5F34012206B00F037F901
:1005F000A18FC5F38012A06B00F031F9EA09B4F8BD
:100600004410206C00F02BF9A1880022206800F033
:1006100026F9012000F02CF8A1880122206800F0C2
:100620001EF9012000F024F8A1880022206800F0C3
:1006300016F9BDE87040012000F01AB80278102ABF
:1006400004D0002A05D10122FFF728BF0122FFF7BD
:100650009ABF704770B50C46054603E02846641CF7
:10066000FFF7ECFF21780029F8D170BD704700003A
:1006700070B5044600F0F8F80546601C02D0044846
:100680000078044400F0F0F8401BA042FAD370BD9B
:10069000640000202DE9F84FDFF89C91002409F157
:1006A000040A0AF1040B23460F270BF1040EBBE0EA
:1006B0000125A5402A40AA4276D1DFF880C14E68C4
:1006C000A6EB0C0866452BD00DDC032E34D005DCE0
:1006D00036B3012E19D0022E2FD11BE0112E16D0C9
:1006E000122E2AD119E0B8F5881F19D006DCB8F50A
:1006F000803F15D0B8F5801F1FD111E0B8F5001F5D
:100700000ED0B8F5041F18D10AE0CB6815E0CB680D
:100710001B1D12E0CB6808330FE0CB680C330CE0F4
:100720008B682BB1012B4FF0080303D0456104E027
:10073000042302E0056100E00023FF2A01D80646F9
:1007400001E000F104064FEA840501D9A5F1200576
:10075000D6F8008007FA05FC28EA0C0803FA05F52C
:1007600048EA0508C6F800804D68ED005BD5344DB9
:10077000AE6946F00106AE61AD6924F0030605F0EE
:10078000010500952F4D06EB050CDCF80850A60777
:10079000360F07FA06F825EA0805DFF8AC80404571
:1007A00003D14FF0000810E03DE0DFF8A0804045A5
:1007B00002D14FF0010808E0DFF89480404502D1F3
:1007C0004FF0020801E04FF0030808FA06F848EA83
:1007D0000508CCF808804D68D9F80060ED034D4657
:1007E00001D5164300E096432E604D68DAF80060AC
:1007F000AD03554601D5164300E096432E604D6883
:10080000DBF80060ED025D4601D5164300E096433B
:100810002E604D68DEF80060AD02754601D51643C6
:1008200000E096432E60641C0A6832FA04F57FF4F7
:100830003FAFBDE8F88F0000000401400000111038
:10084000001002400000014000080140000C01407F
:10085000001001408068084000D0012070470AB1B4
:10086000016170470904FBE7014880687047000098
:10087000640000200248816802781144816070475A
:1008800064000020074810B5016841F010010160C4
:10089000032000F067F80F2000F006F800F024F8BD
:1008A000002010BD0020024070B50D4D04464FF4ED
:1008B0007A712878B1FBF0F00A490968B1FBF0F0D1
:1008C00000F0BEFA48B9102C07D200222146501E73
:1008D00000F028F800206C6070BD012070BD0000A1
:1008E00064000020700000200C4808B5816941F0C8
:1008F00001018161816901F001010091C16941F04B
:100900008051C161C06900F0805000900448416886
:1009100021F0E06141F00071416008BD001002402B
:1009200000000140F0B40E4B1B680C46C3F30223D9
:10093000C3F10705042D00D90425191D072901D28B
:10094000002300E0DB1E012606FA05F1491E2140C6
:1009500099409E40761E16403143F0BC00F0A4BB87
:100960000CED00E0064900F0070208684FF6FF03AF
:10097000184040EA0220034A104308607047000014
:100980000CED00E00000FA052DE9F0470F460500E8
:1009900061D0434E306800F00700B84209D2306899
:1009A00020F0070038433060306800F00700B8429C
:1009B00051D128683B4C810712D5400703D56068A8
:1009C00040F4E06060602878000703D5606840F478
:1009D000605060606068A96820F0F00008436060C3
:1009E0002878C00728D06868012810D0216802281C
:1009F00010D0890700292EDA616821F00301014334
:100A00006160FFF731FF804641F288390DE02168CF
:100A10008903EFE78901EDE7FFF726FFA0EB080167
:100A2000494502D90320BDE8F0876068696800F095
:100A30000C00B0EB810FEFD1306800F00700B84236
:100A40000BD9306820F0070038433060306800F080
:100A50000700B84201D00120E5E72878400705D516
:100A60006068E96820F4E060084360602878000767
:100A700006D56068296920F4605040EAC1006060D2
:100A800000F018F86168084AC1F30311515CC840CE
:100A90000649086006480068FFF706FF0020C2E725
:100AA00000200240001002403424000870000020A2
:100AB0006800002012A185B00FC98DE80F0014A0B6
:100AC000144A006804905168134801F00C03042B89
:100AD00010D0082B0ED1C1F38343C9031DF80300C6
:100AE0000AD5516804AAC1F34041515C0A4A5043F7
:100AF000B0FBF1F005B0704708494843FAE7000041
:100B000002030405060708090A0B0C0D0E0F10104E
:100B1000010200000010024000127A0000093D00AE
:100B20002DE9F84F040070D02078C04DC00749D09F
:100B30006868C0F38100012807D06868C0F38100AD
:100B4000022809D16868C00306D52868800339D512
:100B500060680028E7D035E06068B0F5803F0BD0D2
:100B600010B1B0F5A02F11D0286820F48030286093
:100B7000286820F4802002E0286840F48030286053
:100B8000606890B1FFF770FE06460AE0286840F4FE
:100B900080202860F0E700BFFFF766FE801B642816
:100BA00073D828688003F7D50CE0FFF75DFE064692
:100BB00005E000BFFFF758FE801B6428F0D82868C6
:100BC0008003F7D420789A4E80074FF001094FF048
:100BD000000839D5686810F00C0F07D06868C0F3BA
:100BE0008100022809D16868C00306D428688007FC
:100BF00014D52069012808D110E02069B0B1C6F8E9
:100C00000090FFF731FE074605E00AE1FFF72CFEF2
:100C1000C01B0228C4D828688007F7D528686169F6
:100C200020F0F80040EAC10028600DE0C6F800801E
:100C3000FFF71AFE074604E0FFF716FEC01B022866
:100C400023D828688007F7D4207800072CD5794866
:100C5000A169D9B1C0F80090FFF706FE074604E08D
:100C6000FFF702FEC01B02280FD8686A8007F7D57D
:100C700071484FF4FA510068B0FBF1F0009000BFEA
:100C80000098411E0091FAD20EE080E0C0F800808A
:100C9000FFF7EAFD074604E0FFF7E6FDC01B022868
:100CA00075D8686A8007F7D42078400760D5E8696E
:100CB0000027C00008D4E86940F08050E861E86986
:100CC000012700F0805000905C480168C90513D4EA
:100CD0000168834641F480710160FFF7C5FD8246DB
:100CE00006E000BFFFF7C0FDA0EB0A0064284ED865
:100CF000DBF80000C005F5D5E06801280AD008B18E
:100D0000052813D0286A20F001002862286A20F004
:100D1000040002E0286A40F001002862E06841F225
:100D2000883B98B1FFF7A0FD82460BE0286A40F0AF
:100D300004002862EEE700BFFFF796FDA0EB0A0172
:100D400059455AD8286A8007F6D50CE0FFF78CFD84
:100D5000824605E0FFF788FDA0EB0A0159454CD813
:100D6000286A8007F6D41FB1E86920F08050E86156
:100D7000E06988B36968C1F38101022944D002287F
:100D8000C6F8608004D0FFF76FFD044638E034E019
:100D9000FFF76AFD074604E0FFF766FDC01B022867
:100DA0002BD828688001F7D4206AB0F5803F05D1A0
:100DB0006868A16820F4003008436860D4E908013D
:100DC0000843696821F4741108436860C6F86090AC
:100DD000FFF74AFD044606E025E000BFFFF744FDAB
:100DE000001B022809D828688001F7D51BE000BF46
:100DF000FFF73AFD001B022802D90320BDE8F88F57
:100E000028688001F4D40EE00128F7D06868226ACF
:100E100000F48031914204D1616A00F4701088427C
:100E200001D00120EAE70020E8E7000000100240BE
:100E300000004242800442427000002000700040E6
:100E400010B5401EB0F1807F01D3012010BD4FF0DE
:100E5000E02460610F21601700F026F90020A061F6
:100E600007202061002010BDFEE700002DE9F05FA3
:100E70000446DDE913A0DDE90F65DDE90DC7DDE915
:100E80000A8BDDF848E0DDF83090C4F824E044F83F
:100E9000286B84E80503183CA4E8081864E8077583
:100EA0001198C4E9010A1598E06000205FF0000283
:100EB00002EB42035D18234403442D5C521C83F86B
:100EC0003850042AF4DB401C0328EFDB208A01227F
:100ED00081B2E06AFFF7C3FCA08A012281B2206BD5
:100EE000FFF7BDFC208B012281B2606BBDE8F05F93
:100EF000FFF7B5BC2DE9F0410546002085F8440018
:100F00004FEA000605EB86070022388A81B2F86AAC
:100F1000FFF7A5FC5FF0000435F8240081B205EB73
:100F20008400C069FFF796FC70B1641C042CF3DBED
:100F3000388A012281B2F86AFFF791FC761C032EF1
:100F4000E0DB0020BDE8F0813220FFF791FB05EBEC
:100F5000840700BF35F8240081B2F869FFF77AFCF6
:100F60000028F7D004EB44002844304490F83800BF
:100F700085F84400E6E700002DE9F04385B0002441
:100F80002D480094019402940394816941F010016A
:100F90008161816901F010010491816941F02001B2
:100FA0008161816901F020010491816941F00401AE
:100FB0008161816901F004010491816941F00801B6
:100FC00081618069DFF8748000F0080041F6707676
:100FD0000490002231464046FFF741FCDFF8609064
:100FE0004FF60307002239464846FFF738FC4FF416
:100FF0000050CDE90004694612480294FFF74AFB0D
:101000000F2001258DE8310069464046FFF742FB7D
:10101000CDE900650226CDE9024669464046FFF764
:1010200039FB00970396CDE9015469464846FFF71E
:1010300031FB05B0BDE8F08300100240000801401C
:10104000000C014000100140FEE7FEE770477047CA
:10105000FFF710BC10B590B028216846FFF7B4F830
:1010600014210AA8FFF7B0F8022000900120049094
:1010700010200024059007946846FFF751FD08B141
:1010800072B6FEE70F20CDE90A040C940D940021FE
:101090000AA80E94FFF778FC002801D072B6FEE78C
:1010A00010B010BD7047FEE70907090E002804DBE9
:1010B00000F1E02080F80014704700F00F0000F10C
:1010C000E02080F8141D70472DE9F04F93B0FFF732
:1010D000D9FBFFF7BFFFFFF74FFF4FF48060FD4CD8
:1010E0004110CDE90F41CDE911408110CDE90D410D
:1010F0004201DFF8E4B3CDE90BB2C600CDE907B693
:101100000101CDE909B14200CDE903B28100CDE989
:1011100005B10091CDE90142234604221421EF4894
:10112000FFF7F8F80820CDE90A400421CDE908418D
:101130000220CDE906400121CDE904414020CDE95E
:1011400002402021CDE90041E44810232246E44931
:101150005830FFF78BFEDFF88883E24F0025A8F1B7
:101160005608DE48FFF73FF900221146DB48FFF73B
:1011700071F9DDA1D948FFF76DFA31463846FFF71E
:1011800069FB012803D06420FFF772FAF5E7D34822
:10119000C8F81450FFF727F900221146CF48FFF78F
:1011A00059F9D5A1CD48FFF755FACD4CB4F12B0430
:1011B00098F814100122C948FFF74CF9C748FFF707
:1011C00037F9C6485830FFF795FE88F80000014609
:1011D0002A287DD023297CD051B1D8F81420BF48CB
:1011E000A154FFF72BFAD8F81400401CC8F81400DB
:1011F0006420FFF73DFAD8F814000828D8D1B74882
:10120000C8F81450FFF703F988F800503146384603
:10121000FFF720FB01280DD0B0485830FFF76AFED9
:1012200088F8000023289CD02A28B0D06420FFF73B
:101230001FFAEBE798F80000232892D02A28A6D0BE
:1012400002220021A548FFF705F9AFA1A348FFF747
:1012500001FAA34CB4F13E0498F8141003229F48FD
:10126000FFF7F8F89D48FFF7E3F89C485830FFF780
:1012700041FE88F800002A2833D0232837D058B1FF
:10128000D8F81420A4A1A0549448FFF7E3F9D8F8A3
:101290001400401CC8F814006420FFF7E9F9D8F8DE
:1012A00014000628D8D18D48C8F81450FFF7AFF8BD
:1012B00088F8005031463846FFF7CCFA01281CD098
:1012C00086485830FFF716FE88F80000232801E012
:1012D00007E00CE0A7D02A28A7D06420FFF7C8F9C0
:1012E000E8E77E48FFF793F8C8F814504FE77B48CB
:1012F000FFF78DF8C8F8145033E798F8000023285A
:10130000FAD02A28F2D076492B3901F10800FEF7ED
:1013100083FF30B972493E3901F10C00FEF77CFFC2
:1013200010B36E48FFF75FF8002211466B48FFF7D5
:1013300091F87AA16948FFF78DF9012200216748E9
:10134000FFF788F87AA16548FFF784F902220021A7
:101350006248FFF77FF879A16048FFF77BF940F614
:10136000B830FFF785F912E75C48FFF73CF8002238
:1013700011465A48FFF76EF875A15848FFF76AF909
:101380004FF4FA60FFF774F95448FFF72CF8002285
:1013900011465248FFF75EF870A15048FFF75AF91E
:1013A000012200214D48FFF755F870A14B48FFF787
:1013B00051F9022200214948FFF74CF870A1474833
:1013C000FFF748F9032200214448FFF743F871A1D1
:1013D0004248FFF73FF988F80050C1463F4858306F
:1013E000FFF788FD89F80000312807D032286ED039
:1013F000232885D06420FFF73BF9EFE73748FEF755
:10140000F2FF002211463548FFF724F866A1334861
:10141000FFF720F9012200213048FFF71BF867A1F0
:101420002E48FFF717F9022200212C48FFF712F887
:1014300066A12A48FFF70EF9032200212748FFF78B
:1014400009F867A12548FFF705F989F800502348F6
:101450005830FFF74FFD89F80000312809D03228B5
:1014600036D0332835D023288ED06420FFF700F9FA
:10147000EDE71A48FEF7B7FF002211461748FEF7BE
:10148000E9FF5BA11548FFF7E5F8012204211348A5
:10149000FEF7E0FF31A11148FFF7DCF8022200213E
:1014A0000E48FEF7D7FF55A10C48FFF7D3F80322EB
:1014B00000210A48FEF7CEFF54A10848FFF7CAF8FA
:1014C00040F6B8342046FFF7D3F80448A8E076E2A7
:1014D000E3E05EE100080140000C014074000020E0
:1014E0005600002000100140506C65617365204C6F
:1014F0006F67696E21000000547970652061636335
:101500006F756E743A2000005479706520706173B5
:1015100073776F72643A20002A000000496E636F8F
:101520007272656374206163636F756E740000008E
:101530006F722070617373776F726400506C6561B5
:1015400073652074727920616761696E0000000024
:1015500057656C636F6D6521000000005472616E09
:10156000204B68756F6E67204475790032303137D3
:1015700032353134204454565430382D4B363200F5
:10158000312E4170706C79204365727469666963AD
:1015900061746500322E5265676973746572204309
:1015A0006C6173730000000043686F6F73652061A6
:1015B000206F626A6563746976653A00312E5465FE
:1015C000737420544F45494300000000322E41708F
:1015D000706C79207363686F6C61727368697000F6
:1015E000332E4170706C792061206A6F62000000B8
:1015F000436F6E6669726D3A00000000534853569F
:101600003A20323031373235313400004269727459
:10161000686461793A20382D372D31393939000025
:10162000FEF7E1FE00221146F948FEF713FFF9A18B
:10163000F748FFF70FF801220021F548FEF70AFFEF
:10164000F8A1F348FFF706F802220421F048FEF75C
:1016500001FFFAA1EE48FEF7FDFF03220021EC484E
:10166000FEF7F8FEF8A1EA48FEF7F4FF4FF47A60BF
:10167000FEF7FEFFE648FEF7B6FE00221146E448FC
:10168000FEF7E8FEF4A1E248FEF7E4FF01220421A0
:10169000DF48FEF7DFFEF3A1E8E0DD48FEF7A3FE3A
:1016A00000221146DA48FEF7D5FEAFF2BC01D84859
:1016B000FEF7D0FF01220421D548FEF7CBFEAFF2A2
:1016C0006411D348FEF7C6FF02220021D048FEF77E
:1016D000C1FEAFF2D801CE48FEF7BCFF03220021C5
:1016E000CB48FEF7B7FEAFF2DC01C948FEF7B2FF08
:1016F00040F6B8342046FEF7BBFFC548FEF773FE40
:1017000000221146C248FEF7A5FEC2A1C048FEF75E
:10171000A1FF01220021BE48FEF79CFEC1A1BC48EA
:10172000FEF798FF02220421B948FEF793FEC3A1F9
:10173000B748FEF78FFF03220021B548FEF78AFE67
:10174000C1A1B348FEF786FF4FF47A60FEF790FF21
:10175000AF48FEF748FE00221146AD48FEF77AFE7C
:10176000BDA1AB48FEF776FF01220321A848FEF792
:1017700071FEBFA1A648FEF76DFF02220021A4481A
:10178000FEF768FEBFA1A248FEF764FF03221146E0
:101790007AE09F48FEF727FE002211469C48FEF79C
:1017A00059FEAFF2B4119A48FEF754FF012204210A
:1017B0009748FEF74FFEAFF25C219548FEF74AFFCF
:1017C000022200219248FEF745FEAFF2D011904868
:1017D000FEF740FF032200218D48FEF73BFEAFF2EB
:1017E000D4118B48FEF736FF40F6B8342046FEF79A
:1017F0003FFF8748FEF7F7FD002211468448FEF7B9
:1018000029FE84A18248FEF725FF0122002180489D
:10181000FEF720FE83A17E48FEF71CFF0222042172
:101820007B48FEF717FE85A17948FEF713FF0322D8
:1018300000217748FEF70EFE83A17548FEF70AFFE8
:101840004FF47A60FEF714FF7148FEF7CCFD0022DA
:1018500011466F48FEF7FEFD7FA16D48FEF7FAFEC8
:10186000012204216A48FEF7F5FD8AA16848FEF7C7
:10187000F1FE022200216648FEF7ECFD81A16448DA
:10188000FEF7E8FE032204216148FEF7E3FD84A190
:101890005F48FEF7DFFE2046FEF7EAFE5C48FEF7F3
:1018A000A2FD002211465A48FEF7D4FD7FA15848F8
:1018B000FEF7D0FE012202215548FEF7CBFD80A1A4
:1018C0005348FEF7C7FE89F8005031463846FEF708
:1018D000C1FF01280CD04E485830FFF70BFB89F8A8
:1018E000000023283FF450AD6420FEF7C1FEECE772
:1018F00099F800002328F5D04548FEF774FD002232
:1019000011464348FEF7A6FD72A14148FEF7A2FE2C
:10191000012211465846FEF7A2FF00220221584636
:10192000FEF79DFF4FF4FA642046FEF7A1FE38480B
:10193000FEF759FD002211463548FEF78BFD68A1E0
:101940003348FEF787FE002201215846FEF787FF45
:10195000002202215846FEF782FF2046FEF788FE4D
:101960002B48FEF740FD002211462948FEF772FD84
:1019700060A12748FEF76EFE012200212448FEF7F1
:1019800069FD60A12248FEF765FE02220021204881
:10199000FEF760FD60A11E48FEF75CFE89F800506E
:1019A0001B485830FFF7A6FA89F800002A2899D07A
:1019B00023283FF4A1AC6420FEF75AFEF0E7144858
:1019C000FEF711FD002211461148FEF743FD56A116
:1019D0000F48FEF73FFE012200210D48FEF73AFDB9
:1019E00057A10B48FEF736FE4C4689F800500848D0
:1019F0005830FFF77FFA2070312807D0322806D000
:101A00002328D4D06420FEF733FEF0E7A0E02BE3D8
:101A100074000020496E3A2056696E68205068753F
:101A20006300000049732073747564656E74206FE1
:101A30006620636C6173733A00000000445456548E
:101A400030382D4B3632000050726F6772616D3A3C
:101A500020444843510000004F626A656374697610
:101A6000653A00005465737420544F4549430000A3
:101A70004170706C79207363686F6C617273686910
:101A80007000000045787069727920646174653A6D
:101A9000000000004170706C792061206A6F620064
:101AA000312D312D3230323200000000507265731A
:101AB0007320436F6E6669726D20746F00000000C2
:101AC0007072696E742063657274696669636174AB
:101AD000652100005072696E74696E672E2E2E00AB
:101AE0005072696E74207375636365737366756C89
:101AF00000000000446F20796F752077616E7420BC
:101B0000746F000073656C65637420746865206F82
:101B100074686572000000007472616E73616374B2
:101B2000696F6E3F00000000312E52656769737463
:101B30006572206E657720636C617373000000002E
:101B4000322E5669657720636C617373657300008C
:101B50002069022819D1F948FEF745FC00221146F8
:101B6000F648FEF777FCF6A1F448FEF773FD012274
:101B70000021F248FEF76EFCF6A1F048FEF76AFD80
:101B800040F6B830FEF774FD19E7EC48FEF72BFC81
:101B900000221146E948FEF75DFCF2A1E748FEF796
:101BA00059FDDFF8D4A3217D0122E448FEF752FC61
:101BB000E248FEF73DFCE1485830FFF79BF9207002
:101BC0000146232825D041B16269DC480AF8021099
:101BD000FEF734FD6069401C60616420FEF748FD3B
:101BE00060690628DFD1D5486561FEF710FC2570D5
:101BF00031463846FEF72EFE01280ED0CF48583029
:101C0000FFF778F920702328BED06420FEF730FD5E
:101C1000EEE7CA48FEF7FBFBD1E620782328B3D0D5
:101C2000D54901F11E00FEF7F7FA00286ED1E068F1
:101C30000C286BD0206908B90C20E060BF48FEF783
:101C4000D2FB00221146BD48FEF704FCCBA1BB48E5
:101C5000FEF700FD01220021B848FEF7FBFBCBA1F7
:101C6000B648FEF7F7FC40F6B830FEF701FDB34882
:101C7000FEF7B9FB00221146B048FEF7EBFBC8A106
:101C8000AE48FEF7E7FC01220021AC48FEF7E2FB7C
:101C9000C8A1AA48FEF7DEFC02220021A748FEF7F1
:101CA000D9FBC8A1A548FEF7D5FC03220021A34813
:101CB000FEF7D0FBC8A1A148FEF7CCFC25709F48D9
:101CC0005830FFF717F92070312809D032280BD08F
:101CD000332810D0232817D06420FEF7C9FCEEE784
:101CE0000B20C9F8040074E0D9F81000401CC9F8B2
:101CF00010000C2005E0D9F81000401CC9F81000B5
:101D00000D20C9F8040079E0E56058E69A4901F130
:101D10002B00FEF781FA00287DD1E06815287AD0E3
:101D2000206908B91520E0608448FEF75CFB0022BA
:101D300011468248FEF78EFB90A18048FEF78AFC90
:101D4000012200217D48FEF785FBA8A17B48FEF714
:101D500081FC40F6B830FEF78BFC7848FEF743FB79
:101D6000002211467548FEF775FB8DA17348FEF7FA
:101D700071FC012200217148FEF76CFB8DA16F48B8
:101D8000FEF768FC022200216C48FEF763FB8DA180
:101D90006A48FEF75FFC032200216848FEF75AFB01
:101DA0008DA16648FEF756FC257064485830FFF751
:101DB000A1F82070312809D0322810D0332815D04E
:101DC0002328A2D06420FEF753FCEEE71520C9F8C3
:101DD0000800D9F81000401CC9F810000EE0D9F82E
:101DE0001000401CC9F81000162005E0D9F81000BA
:101DF000401CC9F810001720C9F808004FF47A7089
:101E0000FEF736FC4D48FEF7EEFA002211464B482D
:101E1000FEF720FB00E03DE079A14848FEF71AFC00
:101E2000012200214548FEF715FB7AA14348FEF741
:101E300011FC022200214148FEF70CFB79A13F482A
:101E4000FEF708FC40F6B830FEF712FC3B48FEF700
:101E5000CAFA002211463948FEF7FCFAAFF26C319B
:101E60003648FEF7F7FB012200213448FEF7F2FA6C
:101E7000AFF270313148FEF7EDFB022200212F480E
:101E8000FEF7E8FAAFF270312C48FEF7E3FB89F871
:101E9000005043E0384901F11E00FEF7BDF920B9BA
:101EA000E0680C2801D1606850B9334901F12B007A
:101EB000FEF7B2F9B8B9E068152814D1A06890B15E
:101EC0001E48FEF790FA002211461C48FEF7C2FA9F
:101ED00058A11A48FEF7BEFB012200211748FEF761
:101EE000B9FA57A112E01548FEF77DFA0022114613
:101EF0001248FEF7AFFA58A11048FEF7ABFB0122DB
:101F000000210E48FEF7A6FAAFF6D0110B48FEF7F7
:101F1000A1FB40F6B830FEF7ABFB36E60748583079
:101F2000FEF7E8FF89F800002A283FF42DAA2328AD
:101F30003FF417A96420FEF79BFBEFE77400002035
:101F4000596F75206F6E6C7920726567697374655F
:101F500072000000757020746F203220636C617312
:101F600073657300456E74657220636C61737320D2
:101F7000636F64653A0000001E000020436C6173CB
:101F800073204E616D653A2000000000536F667447
:101F90007761726520746563686E6F6C6F67790036
:101FA00043686F6F7365206120726561736F6E3A6D
:101FB00000000000312E46756C6C20636C617373F9
:101FC00000000000322E436F696E636964656E74B1
:101FD0002064617465000000332E43726564697487
:101FE000206C696D69746174696F6E00446967691A
:101FF00074616C2070726F63657373696E67000043
:1020000053656E7420526567697374726174696F89
:102010006E000000506C6561736520776169742003
:1020200000000000746F20726573706F6E7365211D
:1020300000000000596F7520616C72656164790061
:102040007369676E656420757020746869732063B6
:102050006C61737300000000496E636F7272656398
:102060007420636F646500002069012814D0022881
:102070007CD0C248FEF7B7F900221146BF48FEF7F0
:10208000E9F9BFA1BD48FEF7E5FA01220321BB48EB
:10209000FEF7E0F9BFA1A6E0E0680C28B74819D028
:1020A000FEF7A1F900221146B448FEF7D3F9BCA10E
:1020B000B248FEF7CFFA2570B0485830FEF71AFF45
:1020C000207031287AD023283FF45EAD6420FEF7DB
:1020D000CFFAF1E7FEF787F900221146A748FEF78D
:1020E000B9F9B5A1A548FEF7B5FA01221146A348F2
:1020F000FEF7B0F9AFF26C11A048FEF7ABFA25700D
:102100009E485830FEF7F6FE2070312870D0232804
:10211000DAD06420FEF7ACFAF2E70C28974868D0D2
:10212000FEF761F9002211469448FEF793F9AFF2E9
:10213000A4119248FEF78EFA012200218F48FEF783
:1021400089F99EA128E08D48FEF784FA0222002139
:102150008A48FEF77FF99DA18848FEF77BFA0322A3
:1021600011468648FEF776F99BA13CE042E016282E
:10217000824872D0FEF737F9002211467F48FEF7F9
:1021800069F9AFF298117D48FEF764FA0122002147
:102190007A48FEF75FF993A17848FEF75BFA0222CE
:1021A00000217648FEF756F988A17448FEF752FAE6
:1021B000032200217148FEF74DF900E0A7E08DA150
:1021C00011E06E48FEF746FA022200216B48FEF746
:1021D00041F97EA16948FEF73DFA032200216748D4
:1021E000FEF738F988A16548FEF734FA2570B9E0A2
:1021F00062E079E0E0680C2860482FD0FEF7F3F841
:10220000002211465D48FEF725F965A15B48FEF7FF
:1022100021FA012200215948FEF71CF97EA15748F6
:10222000FEF718FA022201215448FEF713F9AFF223
:10223000A4215248FEF70EFA257050485830FEF798
:1022400059FE2070312862D0322835D023283FF43F
:102250009BAC6420FEF70CFAEFE770E0FEF7C3F8E2
:10226000002211464548FEF7F5F853A14348FEF712
:10227000F1F9012211464148FEF7ECF8AFF2F421E2
:102280003E48FEF7E7F9022200213C48FEF7E2F85B
:1022900062A13A48FEF7DEF9257038485830FEF75B
:1022A00029FE2070312807D0322830D02328CED004
:1022B0006420FEF7DDF9F0E760680B287FF42DAFAE
:1022C0002E48FEF790F8002211462C48FEF7C2F87F
:1022D000AFF248312948FEF7BDF901220021274815
:1022E000FEF7B8F835A12EE7FEF77DF8002211467B
:1022F0002248FEF7AFF8AFF26C312048FEF7AAF99A
:10230000012200211D48FEF7A5F82CA159E7A0687D
:1023100015287FF42CAF1948FEF765F80022114606
:102320001648FEF797F8AFF23C311448FEF792F9E1
:10233000012200211148FEF78DF82AA103E7FEF7DC
:1023400052F8002211460D48FEF784F8AFF26431CE
:102350000A48FEF77FF9012200210848FEF77AF8C3
:1023600020A12EE705485830FEF7C4FD2070232831
:102370009DD06420FEF77CF9F4E700007400002093
:10238000596F7520646F6E74207265676973746528
:1023900072000000616E7920636C6173732100002C
:1023A000312E4469676974616C2070726F63657364
:1023B00073696E6700000000312E0000436F646592
:1023C0003A203132333435360000000052656173F3
:1023D0006F6E3A200000000046756C6C20636C61E3
:1023E00073730000436F64653A20313233373839F4
:1023F00000000000437265646974206C696D697443
:102400006174696F6E000000436F696E6369646593
:102410006E74206461746500322E0000322E4469AF
:10242000676974616C2070726F63657373696E673E
:102430000000000000000000000000000102030492
:10244000060708096424000800000020740000004A
:1024500028010008D82400087400002004070000A8
:10246000440100080000000000000000000000001F
:10247000000000000000000000000000000000005C
:10248000000000000000000030383037393900000B
:1024900000000000000000323031373235313400A6
:1024A0003132333435363038303739390031323320
:1024B00037383930383037393900313233343536FE
:1024C0003738392A302300000100000010000000D6
:0824D000000000000024F400EC
:04000005080000ED02
:00000001FF
